    1  23:12:32.882447 02:00:00:00:00:01 > 02:00:00:00:00:02, ethertype Unknown (0x4305), length 142: 
	0x0000:  400f 3201 0200 0000 0002 0200 0000 0102  @.2.............
	0x0010:  0200 0000 0101 86dd 600f 2788 0040 3a40  ........`.'..@:@
	0x0020:  fe80 0000 0000 0000 0000 00ff fe00 0101  ................
	0x0030:  fe80 0000 0000 0000 0000 00ff fe00 0102  ................
	0x0040:  8000 0494 1674 0001 e0cd c65f 0000 0000  .....t....._....
	0x0050:  f476 0d00 0000 0000 1011 1213 1415 1617  .v..............
	0x0060:  1819 1a1b 1c1d 1e1f 2021 2223 2425 2627  .........!"#$%&'
	0x0070:  2829 2a2b 2c2d 2e2f 3031 3233 3435 3637  ()*+,-./01234567
    2  23:12:33.896505 02:00:00:00:00:01 > 02:00:00:00:00:02, ethertype Unknown (0x4305), length 142: 
	0x0000:  400f 3201 0200 0000 0002 0200 0000 0102  @.2.............
	0x0010:  0200 0000 0101 86dd 600f 2788 0040 3a40  ........`.'..@:@
	0x0020:  fe80 0000 0000 0000 0000 00ff fe00 0101  ................
	0x0030:  fe80 0000 0000 0000 0000 00ff fe00 0102  ................
	0x0040:  8000 195c 1674 0002 e1cd c65f 0000 0000  ...\.t....._....
	0x0050:  dead 0d00 0000 0000 1011 1213 1415 1617  ................
	0x0060:  1819 1a1b 1c1d 1e1f 2021 2223 2425 2627  .........!"#$%&'
	0x0070:  2829 2a2b 2c2d 2e2f 3031 3233 3435 3637  ()*+,-./01234567
    3  23:12:34.924615 02:00:00:00:00:01 > 02:00:00:00:00:02, ethertype Unknown (0x4305), length 142: 
	0x0000:  400f 3201 0200 0000 0002 0200 0000 0102  @.2.............
	0x0010:  0200 0000 0101 86dd 600f 2788 0040 3a40  ........`.'..@:@
	0x0020:  fe80 0000 0000 0000 0000 00ff fe00 0101  ................
	0x0030:  fe80 0000 0000 0000 0000 00ff fe00 0102  ................
	0x0040:  8000 80ed 1674 0003 e2cd c65f 0000 0000  .....t....._....
	0x0050:  751b 0e00 0000 0000 1011 1213 1415 1617  u...............
	0x0060:  1819 1a1b 1c1d 1e1f 2021 2223 2425 2627  .........!"#$%&'
	0x0070:  2829 2a2b 2c2d 2e2f 3031 3233 3435 3637  ()*+,-./01234567
