    1  23:12:24.828430 02:00:00:00:00:01 > 02:00:00:00:00:02, ethertype Unknown (0x4305), length 142: 
	0x0000:  400f 3201 0200 0000 0002 3333 0000 0001  @.2.......33....
	0x0010:  0200 0000 0101 86dd 600d 0392 0040 3a01  ........`....@:.
	0x0020:  fe80 0000 0000 0000 0000 00ff fe00 0101  ................
	0x0030:  ff02 0000 0000 0000 0000 0000 0000 0001  ................
	0x0040:  8000 ea55 cf04 0001 d8cd c65f 0000 0000  ...U......._....
	0x0050:  5ea3 0c00 0000 0000 1011 1213 1415 1617  ^...............
	0x0060:  1819 1a1b 1c1d 1e1f 2021 2223 2425 2627  .........!"#$%&'
	0x0070:  2829 2a2b 2c2d 2e2f 3031 3233 3435 3637  ()*+,-./01234567
    2  23:12:25.832479 02:00:00:00:00:01 > 02:00:00:00:00:02, ethertype Unknown (0x4305), length 142: 
	0x0000:  400f 3201 0200 0000 0002 3333 0000 0001  @.2.......33....
	0x0010:  0200 0000 0101 86dd 600d 0392 0040 3a01  ........`....@:.
	0x0020:  fe80 0000 0000 0000 0000 00ff fe00 0101  ................
	0x0030:  ff02 0000 0000 0000 0000 0000 0000 0001  ................
	0x0040:  8000 a144 cf04 0002 d9cd c65f 0000 0000  ...D......._....
	0x0050:  a6b3 0c00 0000 0000 1011 1213 1415 1617  ................
	0x0060:  1819 1a1b 1c1d 1e1f 2021 2223 2425 2627  .........!"#$%&'
	0x0070:  2829 2a2b 2c2d 2e2f 3031 3233 3435 3637  ()*+,-./01234567
    3  23:12:26.856636 02:00:00:00:00:01 > 02:00:00:00:00:02, ethertype Unknown (0x4305), length 142: 
	0x0000:  400f 3201 0200 0000 0002 3333 0000 0001  @.2.......33....
	0x0010:  0200 0000 0101 86dd 600d 0392 0040 3a01  ........`....@:.
	0x0020:  fe80 0000 0000 0000 0000 00ff fe00 0101  ................
	0x0030:  ff02 0000 0000 0000 0000 0000 0000 0001  ................
	0x0040:  8000 85e5 cf04 0003 dacd c65f 0000 0000  ..........._....
	0x0050:  c011 0d00 0000 0000 1011 1213 1415 1617  ................
	0x0060:  1819 1a1b 1c1d 1e1f 2021 2223 2425 2627  .........!"#$%&'
	0x0070:  2829 2a2b 2c2d 2e2f 3031 3233 3435 3637  ()*+,-./01234567
