    1  23:11:05.326235 02:00:00:00:00:01 > 02:00:00:00:00:02, ethertype Unknown (0x4305), length 142: 
	0x0000:  400f 3201 0200 0000 0002 3333 0000 0001  @.2.......33....
	0x0010:  0200 0000 0101 86dd 600d 0392 0040 3a01  ........`....@:.
	0x0020:  fe80 0000 0000 0000 0000 00ff fe00 0101  ................
	0x0030:  ff02 0000 0000 0000 0000 0000 0000 0001  ................
	0x0040:  8000 89d2 e831 0001 89cd c65f 0000 0000  .....1....._....
	0x0050:  fcf9 0400 0000 0000 1011 1213 1415 1617  ................
	0x0060:  1819 1a1b 1c1d 1e1f 2021 2223 2425 2627  .........!"#$%&'
	0x0070:  2829 2a2b 2c2d 2e2f 3031 3233 3435 3637  ()*+,-./01234567
    2  23:11:06.348537 02:00:00:00:00:01 > 02:00:00:00:00:02, ethertype Unknown (0x4305), length 142: 
	0x0000:  400f 3201 0200 0000 0002 3333 0000 0001  @.2.......33....
	0x0010:  0200 0000 0101 86dd 600d 0392 0040 3a01  ........`....@:.
	0x0020:  fe80 0000 0000 0000 0000 00ff fe00 0101  ................
	0x0030:  ff02 0000 0000 0000 0000 0000 0000 0001  ................
	0x0040:  8000 6a7a e831 0002 8acd c65f 0000 0000  ..jz.1....._....
	0x0050:  1a51 0500 0000 0000 1011 1213 1415 1617  .Q..............
	0x0060:  1819 1a1b 1c1d 1e1f 2021 2223 2425 2627  .........!"#$%&'
	0x0070:  2829 2a2b 2c2d 2e2f 3031 3233 3435 3637  ()*+,-./01234567
    3  23:11:07.368678 02:00:00:00:00:01 > 02:00:00:00:00:02, ethertype Unknown (0x4305), length 142: 
	0x0000:  400f 3201 0200 0000 0002 3333 0000 0001  @.2.......33....
	0x0010:  0200 0000 0101 86dd 600d 0392 0040 3a01  ........`....@:.
	0x0020:  fe80 0000 0000 0000 0000 00ff fe00 0101  ................
	0x0030:  ff02 0000 0000 0000 0000 0000 0000 0001  ................
	0x0040:  8000 fc2a e831 0003 8bcd c65f 0000 0000  ...*.1....._....
	0x0050:  879f 0500 0000 0000 1011 1213 1415 1617  ................
	0x0060:  1819 1a1b 1c1d 1e1f 2021 2223 2425 2627  .........!"#$%&'
	0x0070:  2829 2a2b 2c2d 2e2f 3031 3233 3435 3637  ()*+,-./01234567
