    1  23:12:28.876506 02:00:00:00:00:01 > ff:ff:ff:ff:ff:ff, ethertype Unknown (0x4305), length 146: 
	0x0000:  010f 3100 0000 0003 0200 0000 0001 3333  ..1...........33
	0x0010:  0000 0001 0200 0000 0101 86dd 600d 0392  ............`...
	0x0020:  0040 3a01 fe80 0000 0000 0000 0000 00ff  .@:.............
	0x0030:  fe00 0101 ff02 0000 0000 0000 0000 0000  ................
	0x0040:  0000 0001 8000 0e63 ba56 0001 dccd c65f  .......c.V....._
	0x0050:  0000 0000 4a44 0d00 0000 0000 1011 1213  ....JD..........
	0x0060:  1415 1617 1819 1a1b 1c1d 1e1f 2021 2223  .............!"#
	0x0070:  2425 2627 2829 2a2b 2c2d 2e2f 3031 3233  $%&'()*+,-./0123
	0x0080:  3435 3637                                4567
    2  23:12:29.880510 02:00:00:00:00:01 > ff:ff:ff:ff:ff:ff, ethertype Unknown (0x4305), length 146: 
	0x0000:  010f 3100 0000 0004 0200 0000 0001 3333  ..1...........33
	0x0010:  0000 0001 0200 0000 0101 86dd 600d 0392  ............`...
	0x0020:  0040 3a01 fe80 0000 0000 0000 0000 00ff  .@:.............
	0x0030:  fe00 0101 ff02 0000 0000 0000 0000 0000  ................
	0x0040:  0000 0001 8000 f35c ba56 0002 ddcd c65f  .......\.V....._
	0x0050:  0000 0000 6449 0d00 0000 0000 1011 1213  ....dI..........
	0x0060:  1415 1617 1819 1a1b 1c1d 1e1f 2021 2223  .............!"#
	0x0070:  2425 2627 2829 2a2b 2c2d 2e2f 3031 3233  $%&'()*+,-./0123
	0x0080:  3435 3637                                4567
    3  23:12:30.880457 02:00:00:00:00:01 > ff:ff:ff:ff:ff:ff, ethertype Unknown (0x4305), length 146: 
	0x0000:  010f 3100 0000 0005 0200 0000 0001 3333  ..1...........33
	0x0010:  0000 0001 0200 0000 0101 86dd 600d 0392  ............`...
	0x0020:  0040 3a01 fe80 0000 0000 0000 0000 00ff  .@:.............
	0x0030:  fe00 0101 ff02 0000 0000 0000 0000 0000  ................
	0x0040:  0000 0001 8000 2655 ba56 0003 decd c65f  ......&U.V....._
	0x0050:  0000 0000 3050 0d00 0000 0000 1011 1213  ....0P..........
	0x0060:  1415 1617 1819 1a1b 1c1d 1e1f 2021 2223  .............!"#
	0x0070:  2425 2627 2829 2a2b 2c2d 2e2f 3031 3233  $%&'()*+,-./0123
	0x0080:  3435 3637                                4567
