    1  23:11:09.388508 02:00:00:00:00:01 > ff:ff:ff:ff:ff:ff, ethertype Unknown (0x4305), length 146: 
	0x0000:  010f 3100 0000 0003 0200 0000 0001 3333  ..1...........33
	0x0010:  0000 0001 0200 0000 0101 86dd 600d 0392  ............`...
	0x0020:  0040 3a01 fe80 0000 0000 0000 0000 00ff  .@:.............
	0x0030:  fe00 0101 ff02 0000 0000 0000 0000 0000  ................
	0x0040:  0000 0001 8000 edd6 5457 0001 8dcd c65f  ........TW....._
	0x0050:  0000 0000 27d0 0500 0000 0000 1011 1213  ....'...........
	0x0060:  1415 1617 1819 1a1b 1c1d 1e1f 2021 2223  .............!"#
	0x0070:  2425 2627 2829 2a2b 2c2d 2e2f 3031 3233  $%&'()*+,-./0123
	0x0080:  3435 3637                                4567
    2  23:11:10.392503 02:00:00:00:00:01 > ff:ff:ff:ff:ff:ff, ethertype Unknown (0x4305), length 146: 
	0x0000:  010f 3100 0000 0004 0200 0000 0001 3333  ..1...........33
	0x0010:  0000 0001 0200 0000 0101 86dd 600d 0392  ............`...
	0x0020:  0040 3a01 fe80 0000 0000 0000 0000 00ff  .@:.............
	0x0030:  fe00 0101 ff02 0000 0000 0000 0000 0000  ................
	0x0040:  0000 0001 8000 a9ce 5457 0002 8ecd c65f  ........TW....._
	0x0050:  0000 0000 6ad7 0500 0000 0000 1011 1213  ....j...........
	0x0060:  1415 1617 1819 1a1b 1c1d 1e1f 2021 2223  .............!"#
	0x0070:  2425 2627 2829 2a2b 2c2d 2e2f 3031 3233  $%&'()*+,-./0123
	0x0080:  3435 3637                                4567
    3  23:11:11.388463 02:00:00:00:00:01 > ff:ff:ff:ff:ff:ff, ethertype Unknown (0x4305), length 146: 
	0x0000:  010f 3100 0000 0005 0200 0000 0001 3333  ..1...........33
	0x0010:  0000 0001 0200 0000 0101 86dd 600d 0392  ............`...
	0x0020:  0040 3a01 fe80 0000 0000 0000 0000 00ff  .@:.............
	0x0030:  fe00 0101 ff02 0000 0000 0000 0000 0000  ................
	0x0040:  0000 0001 8000 6bc9 5457 0003 8fcd c65f  ......k.TW....._
	0x0050:  0000 0000 a7db 0500 0000 0000 1011 1213  ................
	0x0060:  1415 1617 1819 1a1b 1c1d 1e1f 2021 2223  .............!"#
	0x0070:  2425 2627 2829 2a2b 2c2d 2e2f 3031 3233  $%&'()*+,-./0123
	0x0080:  3435 3637                                4567
