    1  23:11:01.096532 02:00:00:00:00:01 > ff:ff:ff:ff:ff:ff, ethertype Unknown (0x4305), length 74: 
	0x0000:  000f 3200 811e d9b8 0200 0000 0001 0200  ..2.............
	0x0010:  0000 0001 00ff 0024 0401 0014 0101 0002  .......$........
	0x0020:  9c2d be5c 8000 0000 ab66 f181 0000 0000  .-.\.....f......
	0x0030:  0602 0004 1800 0000 0201 0000            ............
    2  23:11:01.208421 02:00:00:00:00:02 > ff:ff:ff:ff:ff:ff, ethertype Unknown (0x4305), length 74: 
	0x0000:  000f 3104 811e d9b8 0200 0000 0001 0200  ..1.............
	0x0010:  0000 0001 0026 0024 0401 0014 0101 0002  .....&.$........
	0x0020:  9c2d be5c 8000 0000 ab66 f181 0000 0000  .-.\.....f......
	0x0030:  0602 0004 1800 0000 0201 0000            ............
    3  23:11:06.216481 02:00:00:00:00:01 > ff:ff:ff:ff:ff:ff, ethertype Unknown (0x4305), length 74: 
	0x0000:  000f 3200 811e d9b9 0200 0000 0001 0200  ..2.............
	0x0010:  0000 0001 00ff 0024 0401 0014 0101 0002  .......$........
	0x0020:  9c2d be5c 8000 0000 ab66 f181 0000 0000  .-.\.....f......
	0x0030:  0602 0004 1800 0000 0201 0000            ............
    4  23:11:06.332492 02:00:00:00:00:02 > ff:ff:ff:ff:ff:ff, ethertype Unknown (0x4305), length 74: 
	0x0000:  000f 3104 811e d9b9 0200 0000 0001 0200  ..1.............
	0x0010:  0000 0001 002f 0024 0401 0014 0101 0002  ...../.$........
	0x0020:  9c2d be5c 8000 0000 ab66 f181 0000 0000  .-.\.....f......
	0x0030:  0602 0004 1800 0000 0201 0000            ............
    5  23:11:11.336494 02:00:00:00:00:01 > ff:ff:ff:ff:ff:ff, ethertype Unknown (0x4305), length 74: 
	0x0000:  000f 3200 811e d9ba 0200 0000 0001 0200  ..2.............
	0x0010:  0000 0001 00ff 0024 0401 0014 0101 0002  .......$........
	0x0020:  9c2d be5c 8000 0000 ab66 f181 0000 0000  .-.\.....f......
	0x0030:  0602 0004 1800 0000 0201 0000            ............
    6  23:11:11.444420 02:00:00:00:00:02 > ff:ff:ff:ff:ff:ff, ethertype Unknown (0x4305), length 74: 
	0x0000:  000f 3104 811e d9ba 0200 0000 0001 0200  ..1.............
	0x0010:  0000 0001 0038 0024 0401 0014 0101 0002  .....8.$........
	0x0020:  9c2d be5c 8000 0000 ab66 f181 0000 0000  .-.\.....f......
	0x0030:  0602 0004 1800 0000 0201 0000            ............
    7  23:11:16.456497 02:00:00:00:00:01 > ff:ff:ff:ff:ff:ff, ethertype Unknown (0x4305), length 74: 
	0x0000:  000f 3200 811e d9bb 0200 0000 0001 0200  ..2.............
	0x0010:  0000 0001 00ff 0024 0401 0014 0101 0002  .......$........
	0x0020:  9c2d be5c 8000 0000 ab66 f181 0000 0000  .-.\.....f......
	0x0030:  0602 0004 1800 0000 0201 0000            ............
    8  23:11:16.564437 02:00:00:00:00:02 > ff:ff:ff:ff:ff:ff, ethertype Unknown (0x4305), length 74: 
	0x0000:  000f 3104 811e d9bb 0200 0000 0001 0200  ..1.............
	0x0010:  0000 0001 0041 0024 0401 0014 0101 0002  .....A.$........
	0x0020:  9c2d be5c 8000 0000 ab66 f181 0000 0000  .-.\.....f......
	0x0030:  0602 0004 1800 0000 0201 0000            ............
    9  23:11:21.576843 02:00:00:00:00:01 > ff:ff:ff:ff:ff:ff, ethertype Unknown (0x4305), length 74: 
	0x0000:  000f 3200 811e d9bc 0200 0000 0001 0200  ..2.............
	0x0010:  0000 0001 00ff 0024 0401 0014 0101 0002  .......$........
	0x0020:  9c2d be5c 8000 0000 ab66 f181 0000 0000  .-.\.....f......
	0x0030:  0602 0004 1800 0000 0201 0000            ............
   10  23:11:21.688530 02:00:00:00:00:02 > ff:ff:ff:ff:ff:ff, ethertype Unknown (0x4305), length 74: 
	0x0000:  000f 3104 811e d9bc 0200 0000 0001 0200  ..1.............
	0x0010:  0000 0001 0049 0024 0401 0014 0101 0002  .....I.$........
	0x0020:  9c2d be5c 8000 0000 ab66 f181 0000 0000  .-.\.....f......
	0x0030:  0602 0004 1800 0000 0201 0000            ............
   11  23:11:26.700454 02:00:00:00:00:01 > ff:ff:ff:ff:ff:ff, ethertype Unknown (0x4305), length 74: 
	0x0000:  000f 3200 811e d9bd 0200 0000 0001 0200  ..2.............
	0x0010:  0000 0001 00ff 0024 0401 0014 0101 0002  .......$........
	0x0020:  9c2d be5c 8000 0000 ab66 f181 0000 0000  .-.\.....f......
	0x0030:  0602 0004 1800 0000 0201 0000            ............
   12  23:11:26.808484 02:00:00:00:00:02 > ff:ff:ff:ff:ff:ff, ethertype Unknown (0x4305), length 74: 
	0x0000:  000f 3104 811e d9bd 0200 0000 0001 0200  ..1.............
	0x0010:  0000 0001 0050 0024 0401 0014 0101 0002  .....P.$........
	0x0020:  9c2d be5c 8000 0000 ab66 f181 0000 0000  .-.\.....f......
	0x0030:  0602 0004 1800 0000 0201 0000            ............
   13  23:11:31.816573 02:00:00:00:00:01 > ff:ff:ff:ff:ff:ff, ethertype Unknown (0x4305), length 74: 
	0x0000:  000f 3200 811e d9be 0200 0000 0001 0200  ..2.............
	0x0010:  0000 0001 00ff 0024 0401 0014 0101 0002  .......$........
	0x0020:  9c2d be5c 8000 0000 ab66 f181 0000 0000  .-.\.....f......
	0x0030:  0602 0004 1800 0000 0201 0000            ............
   14  23:11:31.924423 02:00:00:00:00:02 > ff:ff:ff:ff:ff:ff, ethertype Unknown (0x4305), length 74: 
	0x0000:  000f 3104 811e d9be 0200 0000 0001 0200  ..1.............
	0x0010:  0000 0001 0058 0024 0401 0014 0101 0002  .....X.$........
	0x0020:  9c2d be5c 8000 0000 ab66 f181 0000 0000  .-.\.....f......
	0x0030:  0602 0004 1800 0000 0201 0000            ............
   15  23:11:36.936519 02:00:00:00:00:01 > ff:ff:ff:ff:ff:ff, ethertype Unknown (0x4305), length 74: 
	0x0000:  000f 3200 811e d9bf 0200 0000 0001 0200  ..2.............
	0x0010:  0000 0001 00ff 0024 0401 0014 0101 0002  .......$........
	0x0020:  9c2d be5c 8000 0000 ab66 f181 0000 0000  .-.\.....f......
	0x0030:  0602 0004 1800 0000 0201 0000            ............
   16  23:11:37.044458 02:00:00:00:00:02 > ff:ff:ff:ff:ff:ff, ethertype Unknown (0x4305), length 74: 
	0x0000:  000f 3105 811e d9bf 0200 0000 0001 0200  ..1.............
	0x0010:  0000 0001 0000 0024 0401 0014 0101 0002  .......$........
	0x0020:  9c2d be5c 8000 0000 ab66 f181 0000 0000  .-.\.....f......
	0x0030:  0602 0004 1800 0000 0201 0000            ............
   17  23:11:42.056754 02:00:00:00:00:01 > ff:ff:ff:ff:ff:ff, ethertype Unknown (0x4305), length 74: 
	0x0000:  000f 3200 811e d9c0 0200 0000 0001 0200  ..2.............
	0x0010:  0000 0001 00ff 0024 0401 0014 0101 0002  .......$........
	0x0020:  9c2d be5c 8000 0000 ab66 f181 0000 0000  .-.\.....f......
	0x0030:  0602 0004 1800 0000 0201 0000            ............
   18  23:11:42.168511 02:00:00:00:00:02 > ff:ff:ff:ff:ff:ff, ethertype Unknown (0x4305), length 74: 
	0x0000:  000f 3105 811e d9c0 0200 0000 0001 0200  ..1.............
	0x0010:  0000 0001 0009 0024 0401 0014 0101 0002  .......$........
	0x0020:  9c2d be5c 8000 0000 ab66 f181 0000 0000  .-.\.....f......
	0x0030:  0602 0004 1800 0000 0201 0000            ............
   19  23:11:47.176509 02:00:00:00:00:01 > ff:ff:ff:ff:ff:ff, ethertype Unknown (0x4305), length 74: 
	0x0000:  000f 3200 811e d9c1 0200 0000 0001 0200  ..2.............
	0x0010:  0000 0001 00ff 0024 0401 0014 0101 0002  .......$........
	0x0020:  9c2d be5c 8000 0000 ab66 f181 0000 0000  .-.\.....f......
	0x0030:  0602 0004 1800 0000 0201 0000            ............
   20  23:11:47.288462 02:00:00:00:00:02 > ff:ff:ff:ff:ff:ff, ethertype Unknown (0x4305), length 74: 
	0x0000:  000f 3104 811e d9c1 0200 0000 0001 0200  ..1.............
	0x0010:  0000 0001 0014 0024 0401 0014 0101 0002  .......$........
	0x0020:  9c2d be5c 8000 0000 ab66 f181 0000 0000  .-.\.....f......
	0x0030:  0602 0004 1800 0000 0201 0000            ............
