    1  23:11:13.389642 02:00:00:00:00:01 > 02:00:00:00:00:02, ethertype Unknown (0x4305), length 142: 
	0x0000:  400f 3201 0200 0000 0002 0200 0000 0102  @.2.............
	0x0010:  0200 0000 0101 86dd 600f 2788 0040 3a40  ........`.'..@:@
	0x0020:  fe80 0000 0000 0000 0000 00ff fe00 0101  ................
	0x0030:  fe80 0000 0000 0000 0000 00ff fe00 0102  ................
	0x0040:  8000 8947 1146 0001 91cd c65f 0000 0000  ...G.F....._....
	0x0050:  cbf1 0500 0000 0000 1011 1213 1415 1617  ................
	0x0060:  1819 1a1b 1c1d 1e1f 2021 2223 2425 2627  .........!"#$%&'
	0x0070:  2829 2a2b 2c2d 2e2f 3031 3233 3435 3637  ()*+,-./01234567
    2  23:11:14.408471 02:00:00:00:00:01 > 02:00:00:00:00:02, ethertype Unknown (0x4305), length 142: 
	0x0000:  400f 3201 0200 0000 0002 0200 0000 0102  @.2.............
	0x0010:  0200 0000 0101 86dd 600f 2788 0040 3a40  ........`.'..@:@
	0x0020:  fe80 0000 0000 0000 0000 00ff fe00 0101  ................
	0x0030:  fe80 0000 0000 0000 0000 00ff fe00 0102  ................
	0x0040:  8000 dffc 1146 0002 92cd c65f 0000 0000  .....F....._....
	0x0050:  733b 0600 0000 0000 1011 1213 1415 1617  s;..............
	0x0060:  1819 1a1b 1c1d 1e1f 2021 2223 2425 2627  .........!"#$%&'
	0x0070:  2829 2a2b 2c2d 2e2f 3031 3233 3435 3637  ()*+,-./01234567
    3  23:11:15.436453 02:00:00:00:00:01 > 02:00:00:00:00:02, ethertype Unknown (0x4305), length 142: 
	0x0000:  400f 3201 0200 0000 0002 0200 0000 0102  @.2.............
	0x0010:  0200 0000 0101 86dd 600f 2788 0040 3a40  ........`.'..@:@
	0x0020:  fe80 0000 0000 0000 0000 00ff fe00 0101  ................
	0x0030:  fe80 0000 0000 0000 0000 00ff fe00 0102  ................
	0x0040:  8000 8b8e 1146 0003 93cd c65f 0000 0000  .....F....._....
	0x0050:  c6a8 0600 0000 0000 1011 1213 1415 1617  ................
	0x0060:  1819 1a1b 1c1d 1e1f 2021 2223 2425 2627  .........!"#$%&'
	0x0070:  2829 2a2b 2c2d 2e2f 3031 3233 3435 3637  ()*+,-./01234567
