10:00:00:64:64:23 > 10:00:00:64:64:45, ethertype IPv4 (0x0800), length 166: 192.1.2.23 > 192.1.2.45: ESP(spi=0xd1234567,seq=0x1), length 132
	0x0000:  1000 0064 6445 1000 0064 6423 0800 4500  ...ddE...dd#..E.
	0x0010:  0098 fcea 0000 4032 f902 c001 0217 c001  ......@2........
	0x0020:  022d d123 4567 0000 0001 e6bb 1ce8 d0a8  .-.#Eg..........
	0x0030:  8170 da61 de23 4d56 18a0 9984 c00c 3ebc  .p.a.#MV......>.
	0x0040:  fc69 e928 7aff ec21 5449 ffbe 790a c728  .i.(z..!TI..y..(
	0x0050:  0eca 8f6c 88b1 25de ca11 c870 e4f8 5134  ...l..%....p..Q4
	0x0060:  2d20 200f f118 9cc1 8c91 0a5f 37e7 4f15  -.........._7.O.
	0x0070:  28f2 6749 bf99 8bc2 0cc6 4511 7e2b dcc9  (.gI......E.~+..
	0x0080:  ba0b 0ad3 a801 6861 9ac6 6eb4 b070 d771  ......ha..n..p.q
	0x0090:  e65f 6077 ea53 66bf 3bd8 8b5b 5cbc d1e4  ._`w.Sf.;..[\...
	0x00a0:  d990 b76e 85b1                           ...n..
10:00:00:64:64:23 > 10:00:00:64:64:45, ethertype IPv4 (0x0800), length 110: 192.0.2.1 > 192.0.1.1: ICMP echo request, id 28416, seq 1280, length 64
	0x0000:  1000 0064 6445 1000 0064 6423 0800 4500  ...ddE...dd#..E.
	0x0010:  0054 0000 4000 3f01 b8a6 c000 0201 c000  .T..@.?.........
	0x0020:  0101 0800 baf0 6f00 0500 239b c73b f234  ......o...#..;.4
	0x0030:  0100 0809 0a0b 0c0d 0e0f 1011 1213 1415  ................
	0x0040:  1617 1819 1a1b 1c1d 1e1f 2021 2223 2425  ...........!"#$%
	0x0050:  2627 2829 2a2b 2c2d 2e2f 3031 3233 3435  &'()*+,-./012345
	0x0060:  3637 0102 0304 0506 0708 090a 0a04       67............
10:00:00:64:64:23 > 10:00:00:64:64:45, ethertype IPv4 (0x0800), length 166: 192.1.2.23 > 192.1.2.45: ESP(spi=0xd1234567,seq=0x2), length 132
	0x0000:  1000 0064 6445 1000 0064 6423 0800 4500  ...ddE...dd#..E.
	0x0010:  0098 fceb 0000 4032 f901 c001 0217 c001  ......@2........
	0x0020:  022d d123 4567 0000 0002 6eb4 b070 d771  .-.#Eg....n..p.q
	0x0030:  e65f 6077 ea53 66bf 3bd8 4468 9356 47b0  ._`w.Sf.;.Dh.VG.
	0x0040:  c5a2 dab3 be89 4f65 5b1e 4669 f4df d099  ......Oe[.Fi....
	0x0050:  df0b 2cf5 6f80 6af7 d5f3 25c0 0c2a c073  ..,.o.j...%..*.s
	0x0060:  e6ff b2d7 7c9f 065a 6ab7 7d5d 5625 105b  ....|..Zj.}]V%.[
	0x0070:  9b0d a40f 6cac 0f9b 3531 48ba 5e43 c80c  ....l...51H.^C..
	0x0080:  f477 7510 75a2 bbb4 4298 0dca f825 1660  .wu.u...B....%.`
	0x0090:  3803 94fd 5e64 f9ad 9b9e 04de 027b 34ac  8...^d.......{4.
	0x00a0:  857a 8f30 a28e                           .z.0..
10:00:00:64:64:23 > 10:00:00:64:64:45, ethertype IPv4 (0x0800), length 110: 192.0.2.1 > 192.0.1.1: ICMP echo request, id 28416, seq 1536, length 64
	0x0000:  1000 0064 6445 1000 0064 6423 0800 4500  ...ddE...dd#..E.
	0x0010:  0054 0000 4000 3f01 b8a6 c000 0201 c000  .T..@.?.........
	0x0020:  0101 0800 72f0 6f00 0600 289b c73b 3435  ....r.o...(..;45
	0x0030:  0100 0809 0a0b 0c0d 0e0f 1011 1213 1415  ................
	0x0040:  1617 1819 1a1b 1c1d 1e1f 2021 2223 2425  ...........!"#$%
	0x0050:  2627 2829 2a2b 2c2d 2e2f 3031 3233 3435  &'()*+,-./012345
	0x0060:  3637 0102 0304 0506 0708 090a 0a04       67............
10:00:00:64:64:23 > 10:00:00:64:64:45, ethertype IPv4 (0x0800), length 166: 192.1.2.23 > 192.1.2.45: ESP(spi=0xd1234567,seq=0x3), length 132
	0x0000:  1000 0064 6445 1000 0064 6423 0800 4500  ...ddE...dd#..E.
	0x0010:  0098 fcec 0000 4032 f900 c001 0217 c001  ......@2........
	0x0020:  022d d123 4567 0000 0003 0dca f825 1660  .-.#Eg.......%.`
	0x0030:  3803 94fd 5e64 f9ad 9b9e 7563 5bd4 61d6  8...^d....uc[.a.
	0x0040:  09ef d4a1 8424 b79f ba66 54fa b13e efba  .....$...fT..>..
	0x0050:  e2ac 702e a05c 8daf f78d 3e3d 2ab0 7083  ..p..\....>=*.p.
	0x0060:  fe62 ed2f 354f 0f89 586a 9635 2e6c cf02  .b./5O..Xj.5.l..
	0x0070:  5cd1 886d 986d fd29 d585 18ce eec8 ab4c  \..m.m.).......L
	0x0080:  7270 7e19 5b12 9ec9 058b 86ca 37ef d245  rp~.[.......7..E
	0x0090:  dcd8 9869 d543 0a95 e5e5 b35c a6e3 290f  ...i.C.....\..).
	0x00a0:  aa42 1a83 2972                           .B..)r
10:00:00:64:64:23 > 10:00:00:64:64:45, ethertype IPv4 (0x0800), length 110: 192.0.2.1 > 192.0.1.1: ICMP echo request, id 28416, seq 1792, length 64
	0x0000:  1000 0064 6445 1000 0064 6423 0800 4500  ...ddE...dd#..E.
	0x0010:  0054 0000 4000 3f01 b8a6 c000 0201 c000  .T..@.?.........
	0x0020:  0101 0800 d9ef 6f00 0700 2d9b c73b c735  ......o...-..;.5
	0x0030:  0100 0809 0a0b 0c0d 0e0f 1011 1213 1415  ................
	0x0040:  1617 1819 1a1b 1c1d 1e1f 2021 2223 2425  ...........!"#$%
	0x0050:  2627 2829 2a2b 2c2d 2e2f 3031 3233 3435  &'()*+,-./012345
	0x0060:  3637 0102 0304 0506 0708 090a 0a04       67............
10:00:00:64:64:23 > 10:00:00:64:64:45, ethertype IPv4 (0x0800), length 166: 192.1.2.23 > 192.1.2.45: ESP(spi=0xd1234567,seq=0x4), length 132
	0x0000:  1000 0064 6445 1000 0064 6423 0800 4500  ...ddE...dd#..E.
	0x0010:  0098 fced 0000 4032 f8ff c001 0217 c001  ......@2........
	0x0020:  022d d123 4567 0000 0004 86ca 37ef d245  .-.#Eg......7..E
	0x0030:  dcd8 9869 d543 0a95 e5e5 6b16 0c9b 2612  ...i.C....k...&.
	0x0040:  2571 5e64 1e06 1682 7d02 3461 ada3 028e  %q^d....}.4a....
	0x0050:  85d7 c575 a9a4 ea87 5429 909a 7bd1 e71e  ...u....T)..{...
	0x0060:  3894 1527 f0a8 24be a0a5 51f1 8c01 6740  8..'..$...Q...g@
	0x0070:  384c 36e6 2e81 3b72 7dd7 75fa cec9 340d  8L6...;r}.u...4.
	0x0080:  1d61 ec4e 1bd8 c9d6 ad4f 3127 a7a7 94e8  .a.N.....O1'....
	0x0090:  45fa b107 3ccd dcfc 1406 a2dd 9d52 1e0d  E...<........R..
	0x00a0:  7e82 430c 68ec                           ~.C.h.
10:00:00:64:64:23 > 10:00:00:64:64:45, ethertype IPv4 (0x0800), length 110: 192.0.2.1 > 192.0.1.1: ICMP echo request, id 28416, seq 2048, length 64
	0x0000:  1000 0064 6445 1000 0064 6423 0800 4500  ...ddE...dd#..E.
	0x0010:  0054 0000 4000 3f01 b8a6 c000 0201 c000  .T..@.?.........
	0x0020:  0101 0800 e8ef 6f00 0800 329b c73b b235  ......o...2..;.5
	0x0030:  0100 0809 0a0b 0c0d 0e0f 1011 1213 1415  ................
	0x0040:  1617 1819 1a1b 1c1d 1e1f 2021 2223 2425  ...........!"#$%
	0x0050:  2627 2829 2a2b 2c2d 2e2f 3031 3233 3435  &'()*+,-./012345
	0x0060:  3637 0102 0304 0506 0708 090a 0a04       67............
10:00:00:64:64:23 > 10:00:00:64:64:45, ethertype IPv4 (0x0800), length 166: 192.1.2.23 > 192.1.2.45: ESP(spi=0xd1234567,seq=0x5), length 132
	0x0000:  1000 0064 6445 1000 0064 6423 0800 4500  ...ddE...dd#..E.
	0x0010:  0098 fcee 0000 4032 f8fe c001 0217 c001  ......@2........
	0x0020:  022d d123 4567 0000 0005 3127 a7a7 94e8  .-.#Eg....1'....
	0x0030:  45fa b107 3ccd dcfc 1406 2dc6 2868 7b10  E...<.....-.(h{.
	0x0040:  1e27 adcf adf9 eff8 4594 c29c 2471 d379  .'......E...$q.y
	0x0050:  dec4 28ef 4951 02c2 d2d1 2d8e d618 8457  ..(.IQ....-....W
	0x0060:  f259 7cc1 a58d df6c 3475 9451 7e01 cde8  .Y|....l4u.Q~...
	0x0070:  c30f d76e 9207 1d88 e145 514f 567d c164  ...n.....EQOV}.d
	0x0080:  a3aa dcde faf9 229e 8d5d 1743 a848 6e9c  ......"..].C.Hn.
	0x0090:  50c6 0805 4312 ec68 54fa 8742 b1a2 c075  P...C..hT..B...u
	0x00a0:  49df 2885 cc4a                           I.(..J
10:00:00:64:64:23 > 10:00:00:64:64:45, ethertype IPv4 (0x0800), length 110: 192.0.2.1 > 192.0.1.1: ICMP echo request, id 28416, seq 2304, length 64
	0x0000:  1000 0064 6445 1000 0064 6423 0800 4500  ...ddE...dd#..E.
	0x0010:  0054 0000 4000 3f01 b8a6 c000 0201 c000  .T..@.?.........
	0x0020:  0101 0800 9aef 6f00 0900 379b c73b fa35  ......o...7..;.5
	0x0030:  0100 0809 0a0b 0c0d 0e0f 1011 1213 1415  ................
	0x0040:  1617 1819 1a1b 1c1d 1e1f 2021 2223 2425  ...........!"#$%
	0x0050:  2627 2829 2a2b 2c2d 2e2f 3031 3233 3435  &'()*+,-./012345
	0x0060:  3637 0102 0304 0506 0708 090a 0a04       67............
10:00:00:64:64:23 > 10:00:00:64:64:45, ethertype IPv4 (0x0800), length 166: 192.1.2.23 > 192.1.2.45: ESP(spi=0xd1234567,seq=0x6), length 132
	0x0000:  1000 0064 6445 1000 0064 6423 0800 4500  ...ddE...dd#..E.
	0x0010:  0098 fcef 0000 4032 f8fd c001 0217 c001  ......@2........
	0x0020:  022d d123 4567 0000 0006 1743 a848 6e9c  .-.#Eg.....C.Hn.
	0x0030:  50c6 0805 4312 ec68 54fa 80aa 31c3 a87d  P...C..hT...1..}
	0x0040:  4f3d 3793 90e3 e6a9 efaa 826b 72bd b466  O=7........kr..f
	0x0050:  7591 79ea 4796 8b66 0b80 7e9c ca20 339d  u.y.G..f..~...3.
	0x0060:  f45f e756 40e4 cf11 77e1 e682 6766 78a4  ._.V@...w...gfx.
	0x0070:  1450 cc93 d065 921f 6229 fd65 7b56 562c  .P...e..b).e{VV,
	0x0080:  257c add0 823c eb2f 1fff fe6c 4b9c 9600  %|...<./...lK...
	0x0090:  4e48 64fe 8356 b0ff f63f 1e4f b98c 1511  NHd..V...?.O....
	0x00a0:  94c0 6005 672b                           ..`.g+
10:00:00:64:64:23 > 10:00:00:64:64:45, ethertype IPv4 (0x0800), length 110: 192.0.2.1 > 192.0.1.1: ICMP echo request, id 28416, seq 2560, length 64
	0x0000:  1000 0064 6445 1000 0064 6423 0800 4500  ...ddE...dd#..E.
	0x0010:  0054 0000 4000 3f01 b8a6 c000 0201 c000  .T..@.?.........
	0x0020:  0101 0800 5fee 6f00 0a00 3c9b c73b 2f37  ...._.o...<..;/7
	0x0030:  0100 0809 0a0b 0c0d 0e0f 1011 1213 1415  ................
	0x0040:  1617 1819 1a1b 1c1d 1e1f 2021 2223 2425  ...........!"#$%
	0x0050:  2627 2829 2a2b 2c2d 2e2f 3031 3233 3435  &'()*+,-./012345
	0x0060:  3637 0102 0304 0506 0708 090a 0a04       67............
10:00:00:64:64:23 > 10:00:00:64:64:45, ethertype IPv4 (0x0800), length 166: 192.1.2.23 > 192.1.2.45: ESP(spi=0xd1234567,seq=0x7), length 132
	0x0000:  1000 0064 6445 1000 0064 6423 0800 4500  ...ddE...dd#..E.
	0x0010:  0098 fcf0 0000 4032 f8fc c001 0217 c001  ......@2........
	0x0020:  022d d123 4567 0000 0007 fe6c 4b9c 9600  .-.#Eg.....lK...
	0x0030:  4e48 64fe 8356 b0ff f63f faab 5157 b5fb  NHd..V...?..QW..
	0x0040:  124d ea40 b039 3d80 69df e978 92bc 39e9  .M.@.9=.i..x..9.
	0x0050:  7ee9 2b9b b5ea c2e3 18db ca1e 1672 c91c  ~.+..........r..
	0x0060:  b14b 9ac2 86f1 82e8 4bea e6de 6579 c5a1  .K......K...ey..
	0x0070:  14d8 1311 7e76 ddbf 991b 04c4 f990 7d88  ....~v........}.
	0x0080:  dfbe 41a4 8d5d e19e fc6a c248 5678 aa32  ..A..]...j.HVx.2
	0x0090:  204d 56e1 0e8e 7d84 dac9 3ec9 fe8c aece  .MV...}...>.....
	0x00a0:  e1b6 923a 8cdc                           ...:..
10:00:00:64:64:23 > 10:00:00:64:64:45, ethertype IPv4 (0x0800), length 110: 192.0.2.1 > 192.0.1.1: ICMP echo request, id 28416, seq 2816, length 64
	0x0000:  1000 0064 6445 1000 0064 6423 0800 4500  ...ddE...dd#..E.
	0x0010:  0054 0000 4000 3f01 b8a6 c000 0201 c000  .T..@.?.........
	0x0020:  0101 0800 0bef 6f00 0b00 419b c73b 7d36  ......o...A..;}6
	0x0030:  0100 0809 0a0b 0c0d 0e0f 1011 1213 1415  ................
	0x0040:  1617 1819 1a1b 1c1d 1e1f 2021 2223 2425  ...........!"#$%
	0x0050:  2627 2829 2a2b 2c2d 2e2f 3031 3233 3435  &'()*+,-./012345
	0x0060:  3637 0102 0304 0506 0708 090a 0a04       67............
10:00:00:64:64:23 > 10:00:00:64:64:45, ethertype IPv4 (0x0800), length 166: 192.1.2.23 > 192.1.2.45: ESP(spi=0xd1234567,seq=0x8), length 132
	0x0000:  1000 0064 6445 1000 0064 6423 0800 4500  ...ddE...dd#..E.
	0x0010:  0098 fcf1 0000 4032 f8fb c001 0217 c001  ......@2........
	0x0020:  022d d123 4567 0000 0008 c248 5678 aa32  .-.#Eg.....HVx.2
	0x0030:  204d 56e1 0e8e 7d84 dac9 be50 7253 d4ce  .MV...}....PrS..
	0x0040:  e275 e1bc 5a90 4905 ac89 3ae9 afbf f2b1  .u..Z.I...:.....
	0x0050:  07eb 1611 bb45 2b8a 7903 e9df fe02 5f81  .....E+.y....._.
	0x0060:  a332 aba2 5a81 241a e578 61d2 4165 4f08  .2..Z.$..xa.AeO.
	0x0070:  ab47 96ce 247d 1153 f2c4 f48c ed6b af78  .G..$}.S.....k.x
	0x0080:  888d 5be0 5d87 99b3 1f9c 43a5 bd99 d69c  ..[.].....C.....
	0x0090:  6e0e deb3 e6cf f0d5 b789 847b 9f82 5cb7  n..........{..\.
	0x00a0:  3422 75eb 2792                           4"u.'.
10:00:00:64:64:23 > 10:00:00:64:64:45, ethertype IPv4 (0x0800), length 110: 192.0.2.1 > 192.0.1.1: ICMP echo request, id 28416, seq 3072, length 64
	0x0000:  1000 0064 6445 1000 0064 6423 0800 4500  ...ddE...dd#..E.
	0x0010:  0054 0000 4000 3f01 b8a6 c000 0201 c000  .T..@.?.........
	0x0020:  0101 0800 c5ee 6f00 0c00 469b c73b bd36  ......o...F..;.6
	0x0030:  0100 0809 0a0b 0c0d 0e0f 1011 1213 1415  ................
	0x0040:  1617 1819 1a1b 1c1d 1e1f 2021 2223 2425  ...........!"#$%
	0x0050:  2627 2829 2a2b 2c2d 2e2f 3031 3233 3435  &'()*+,-./012345
	0x0060:  3637 0102 0304 0506 0708 090a 0a04       67............
