IP6 (hlim 255, next-header ICMPv6 (58) payload length: 80) fe80::d498:f9ff:fee7:896 > ff02::1: 0000: fe 80 00 00  00 00 00 00  d4 98 f9 ff  fe e7 08 96    ................   .
0010: ff 02 00 00  00 00 00 00  00 00 00 00  00 00 00 01    ................   .
0020: 00 00 00 50  00 00 00 3a                              ...P...:           .
0000: 86 00 37 de  40 20 00 0f  00 00 00 00  00 00 00 00    ..7.@ ..........   .
0010: 08 01 00 00  c3 51 00 0f  07 01 00 00  00 00 13 88    .....Q..........   .
0020: 03 04 48 c0  00 27 8d 00  00 09 3a 80  00 00 00 00    ..H..'....:.....   .
0030: 22 22 33 33  44 44 55 55  66 00 00 00  00 00 00 00    ""33DDUUf.......   .
0040: 01 01 d6 98  f9 e7 08 96  05 01 00 00  00 00 00 64    ...............d   .
[icmp6 sum ok] ICMP6, router advertisement, length 80
	hop limit 64, Flags [home agent], pref medium, router lifetime 15s, reachable time 0s, retrans time 0s
	  homeagent information option (8), length 8 (1):  preference 50001, lifetime 15
	    0x0000:  0000 c351 000f
	  advertisement interval option (7), length 8 (1):  5000ms
	    0x0000:  0000 0000 1388
	  prefix info option (3), length 32 (4): 2222:3333:4444:5555:6600::/72, Flags [onlink, auto], valid time 2592000s, pref. time 604800s
	    0x0000:  48c0 0027 8d00 0009 3a80 0000 0000 2222
	    0x0010:  3333 4444 5555 6600 0000 0000 0000
	  source link-address option (1), length 8 (1): d6:98:f9:e7:08:96
	    0x0000:  d698 f9e7 0896
	  mtu option (5), length 8 (1):  100
	    0x0000:  0000 0000 0064
