    1  2018-01-06 21:27:06.045227 IP (tos 0xc0, ttl 1, id 2728, offset 0, flags [none], proto OSPF (89), length 92)
    192.85.1.4 > 224.0.0.5: OSPFv2, LS-Update, length 72
	Router-ID 192.0.0.2, Backbone Area, Authentication Type: none (0), 1 LSA
	  LSA #1
	  Advertising Router 192.0.0.2, seq 0x80000000, age 0s, length 24
	    Link Local Opaque LSA (9), Opaque-Type Graceful restart LSA (3), Opaque-ID 0
	    Options: [Opaque]
	    Grace Period TLV (1), length 4, value: 40s
	    Graceful restart Reason TLV (2), length 1, value: Unknown (0)
	    IPv4 interface address TLV (3), length 4, value: 192.85.1.4
	    0x0000:  0001 0004 0000 0028 0002 0001 0000 0000
	    0x0010:  0003 0004 c055 0104
