    1  2025-09-23 15:00:00.000000 OSSP, length 52
	OUI: Unknown (0x0019a7)
	0x0000:  0001 1000 0000 0100 0404 0000 0000 0000
	0x0010:  0000 0000 0000 0000 0000 0000 0000 0000
	0x0020:  0000 0000 0000 0000 0000 0000 0000 0000
